:100000000C9446000C9465000C9465000C946500FB
:100010000C9465000C9465000C9465000C946500CC
:100020000C9465000C9465000C9465000C946500BC
:100030000C9465000C940C010C9465000C94650004
:100040000C9465000C9465000C9465000C9465009C
:100050000C9465000C9465000C9465000C9465008C
:100060000C9465000C9465000C9465000C9465007C
:100070000C9465000C9465000C9465000C9465006C
:100080000C9465000C9465000C94650011241FBE4F
:10009000CFEFD0E4DEBFCDBF11E0A0E0B1E0E0E300
:1000A000FCE000E00BBF02C007900D92AA34B1073C
:1000B000D9F721E0AAE4B1E001C01D92A735B2074B
:1000C000E1F70E9458040C9416060C940000CF939C
:1000D000DF9300D01F92CDB7DEB789837B836A831D
:1000E00089818A3031F48A819B81BC018DE00E9434
:1000F000670080EC90E0FC018081882F90E08072A6
:100100009927892BB1F386EC90E02981FC012083AB
:1001100080E090E00F900F900F90DF91CF910895C5
:10012000CF93DF9300D000D0CDB7DEB769837A8359
:100130008B839C8389819A81AB81BC8180930E01E2
:1001400090930F01A0931001B093110180910E01C3
:1001500090910F01A0911001B091110180934B017A
:1001600090934C01A0934D01B0934E0100000F906D
:100170000F900F900F90DF91CF910895CF93DF9361
:10018000CDB7DEB781E890E02BE0FC01208388E862
:1001900090E02DE730E0FC01318320838FE690E092
:1001A00022E0FC01208384E890E0FC0111821082AF
:1001B00080910E0190910F01A0911001B091110159
:1001C00080934B0190934C01A0934D01B0934E014D
:1001D0008FE590E02FE530E0F90120812068FC01F7
:1001E00020830000DF91CF910895CF93DF93CDB7A7
:1001F000DEB781E890E0FC0110820000DF91CF9132
:100200000895CF93DF93CDB7DEB781E080934A01A5
:100210000000DF91CF9108951F920F9200905F0030
:100220000F92112400905B000F922F933F934F93F6
:100230005F936F937F938F939F93AF93BF93EF934E
:10024000FF93CF93DF93CDB7DEB780914B019091B1
:100250004C01A0914D01B0914E010197A109B10946
:1002600080934B0190934C01A0934D01B0934E01AC
:1002700080914B0190914C01A0914D01B0914E01A4
:10028000892B8A2B8B2B91F40E94010180910E0106
:1002900090910F01A0911001B091110180934B0139
:1002A00090934C01A0934D01B0934E010000DF915B
:1002B000CF91FF91EF91BF91AF919F918F917F91DE
:1002C0006F915F914F913F912F910F9000925B0042
:1002D0000F9000925F000F901F9018950F931F933F
:1002E000CF93DF9300D000D0CDB7DEB769837A8398
:1002F0008B839C838091510190915201A091530175
:10030000B09154019C01AD0169817A818B819C81FE
:100310000E948204882309F477C020E030E0A9011C
:1003200069817A818B819C810E948204882351F4A7
:1003300081E990E021E930E0F90120812870FC0199
:10034000208309C081E990E021E930E0F9012081B2
:100350002360FC01208328E539E344E75FE36981FA
:100360007A818B819C810E948204882344F488E9ED
:1003700090E02FEF3FEFFC013183208334C020E079
:1003800034E244EF56E469817A818B819C810E943A
:10039000A405181634F488E990E0FC01118210825B
:1003A00022C008E910E020E030E040E053E4698139
:1003B0007A818B819C810E94A905DC01CB019C0183
:1003C000AD0160E074E284EF9AE40E948704DC01EE
:1003D000CB01BC01CD010E94F904DC01CB010197E6
:1003E000F8019183808384E990E0FC0111821082FE
:1003F00089819A81AB81BC81809351019093520194
:10040000A0935301B093540100000F900F900F90F0
:100410000F90DF91CF911F910F910895CF93DF93AC
:10042000CDB7DEB780E990E020E4FC01208381E9CC
:1004300090E02BE0FC01208360E070E0CB010E94A3
:100440006E010000DF91CF910895CF93DF93CDB778
:10045000DEB780E990E0FC01108281E990E0FC01C8
:1004600010820000DF91CF910895CF93DF93CDB735
:10047000DEB780915501909156018130910581F050
:100480008130910530F08230910511F1039791F19F
:1004900049C081E090E0909356018093550147C098
:1004A00080E290E0FC018081882F90E081709927A4
:1004B000892B39F482E090E09093560180935501A6
:1004C00036C081E090E090935601809355012FC093
:1004D00080914F01833338F482E090E0909356018D
:1004E0008093550124C083E090E09093560180935F
:1004F00055011DC080E290E0FC018081882F90E0D2
:1005000081709927892B39F081E090E09093560112
:10051000809355010CC083E090E090935601809346
:10052000550105C0109256011092550100008091AE
:100530005501909156018130910559F08130910516
:1005400008F4B1C18230910571F0039709F4A1C19B
:10055000ABC160E070E0CB010E946E0110925001CF
:1005600010924F01A1C180914F018330A0F480917E
:100570005001882F90E0880F991F880F991F8E5E79
:100580009E4FFC0180819181A281B381BC01CD018C
:100590000E946E0178C180914F018630C8F480912D
:1005A00050018F5F8093500180915001882F90E01F
:1005B000880F991F880F991F8E5E9E4FFC018081C6
:1005C0009181A281B381BC01CD010E946E015BC10A
:1005D00080914F018930C8F4809150018F5F8093E2
:1005E000500180915001882F90E0880F991F880F4B
:1005F000991F8E5E9E4FFC0180819181A281B38103
:10060000BC01CD010E946E013EC180914F018C3032
:10061000C8F4809150018F5F809350018091500108
:10062000882F90E0880F991F880F991F8E5E9E4F2C
:10063000FC0180819181A281B381BC01CD010E9426
:100640006E0121C180914F018F30C8F4809150011B
:100650008F5F8093500180915001882F90E0880F28
:10066000991F880F991F8E5E9E4FFC01808191819A
:10067000A281B381BC01CD010E946E0104C18091B1
:100680004F018231C8F4809150018F5F80935001F7
:1006900080915001882F90E0880F991F880F991F33
:1006A0008E5E9E4FFC0180819181A281B381BC014D
:1006B000CD010E946E01E7C080914F018E31C8F4D8
:1006C000809150018F5F8093500180915001882F5D
:1006D00090E0880F991F880F991F8E5E9E4FFC0136
:1006E00080819181A281B381BC01CD010E946E0104
:1006F000CAC080914F018132C8F4809150018F5F50
:100700008093500180915001882F90E0880F991FAD
:10071000880F991F8E5E9E4FFC0180819181A2817E
:10072000B381BC01CD010E946E01ADC080914F012B
:100730008432C8F4809150018F5F80935001809182
:100740005001882F90E0880F991F880F991F8E5EA7
:100750009E4FFC0180819181A281B381BC01CD01BA
:100760000E946E0190C080914F018732C8F4809141
:1007700050018F5F8093500180915001882F90E04D
:10078000880F991F880F991F8E5E9E4FFC018081F4
:100790009181A281B381BC01CD010E946E0173C021
:1007A00080914F018A32C8F4809150018F5F80930D
:1007B000500180915001882F90E0880F991F880F79
:1007C000991F8E5E9E4FFC0180819181A281B38131
:1007D000BC01CD010E946E0156C080914F018D3247
:1007E000C8F4809150018F5F809350018091500137
:1007F000882F90E0880F991F880F991F8E5E9E4F5B
:10080000FC0180819181A281B381BC01CD010E9454
:100810006E0139C080914F018033C8F4809150013E
:100820008F5F8093500180915001882F90E0880F56
:10083000991F880F991F8E5E9E4FFC0180819181C8
:10084000A281B381BC01CD010E946E011CC08091C8
:100850004F018333C0F4809150018F5F809350012A
:1008600080915001882F90E0880F991F880F991F61
:100870008E5E9E4FFC0180819181A281B381BC017B
:10088000CD010E946E0180914F018F5F80934F01D7
:100890000BC060E070E0CB010E946E01109250012D
:1008A00010924F0101C000000000DF91CF91089528
:1008B000CF93DF93CDB7DEB781E290E0FC011082E9
:1008C00082E290E02FEFFC01208384E290E02FEFA2
:1008D000FC01208385E290E0FC01108264E670E078
:1008E00080E090E00E9490000E94BE000E940E02F4
:1008F0000E943502000080914A018823E1F31092A2
:100900004A01F6CF0E942F0508F481E008950E9465
:100910009B040C946A050E94630558F00E945C05D4
:1009200040F029F45F3F29F00C94530551110C94C9
:100930009E050C9459050E947B0568F39923B1F339
:10094000552391F3951B550BBB27AA2762177307F5
:10095000840738F09F5F5F4F220F331F441FAA1F89
:10096000A9F335D00E2E3AF0E0E832D09150504045
:10097000E695001CCAF72BD0FE2F29D0660F771FF3
:10098000881FBB1F261737074807AB07B0E809F0D9
:10099000BB0B802DBF01FF2793585F4F3AF09E3F5E
:1009A000510578F00C9453050C949E055F3FE4F3D9
:1009B000983ED4F3869577956795B795F7959F5FA1
:1009C000C9F7880F911D9695879597F90895E1E0ED
:1009D000660F771F881FBB1F621773078407BA074C
:1009E00020F0621B730B840BBA0BEE1F88F7E095A7
:1009F00008950E9400056894B1110C949E05089515
:100A00000E94830588F09F5798F0B92F9927B75116
:100A1000B0F0E1F0660F771F881F991F1AF0BA95A2
:100A2000C9F714C0B13091F00E949D05B1E008955E
:100A30000C949D05672F782F8827B85F39F0B93F50
:100A4000CCF3869577956795B395D9F73EF4909555
:100A50008095709561957F4F8F4F9F4F0895990FA7
:100A60000008550FAA0BE0E8FEEF16161706E80778
:100A7000F907C0F012161306E407F50798F0621B99
:100A8000730B840B950B39F40A2661F0232B242B6E
:100A9000252B21F408950A2609F4A140A6958FEF8D
:100AA000811D811D089597F99F6780E870E060E0DF
:100AB00008959FEF80EC089500240A9416161706F7
:100AC00018060906089500240A941216130614063F
:100AD00005060895092E0394000C11F4882352F0A2
:100AE000BB0F40F4BF2B11F460FF04C06F5F7F4F5A
:100AF0008F4F9F4F089557FD9058440F551F59F041
:100B00005F3F71F04795880F97FB991F61F09F3FFA
:100B100079F087950895121613061406551FF2CF23
:100B20004695F1DF08C0161617061806991FF1CF73
:100B300086957105610508940895E894BB2766279A
:100B40007727CB0197F908950E942F0508F48FEFBE
:100B500008950E94BC050C946A050E945C0538F05B
:100B60000E94630520F0952311F00C9453050C941A
:100B7000590511240C949E050E947B0570F3959FE6
:100B8000C1F3950F50E0551F629FF001729FBB2784
:100B9000F00DB11D639FAA27F00DB11DAA1F649F20
:100BA0006627B00DA11D661F829F2227B00DA11DD3
:100BB000621F739FB00DA11D621F839FA00D611D59
:100BC000221F749F3327A00D611D231F849F600D7A
:100BD000211D822F762F6A2F11249F5750409AF0A3
:100BE000F1F088234AF0EE0FFF1FBB1F661F771F2F
:100BF000881F91505040A9F79E3F510580F00C94FA
:100C000053050C949E055F3FE4F3983ED4F386951C
:100C100077956795B795F795E7959F5FC1F7FE2B99
:100C2000880F911D9695879597F90895F894FFCFB1
:100C3000000000020000000067000000000001004A
:100C40000000A4D08243A4D082430000C44300002B
:100C5000C4430000DC430000DC430000C443719D3A
:100C6000AE43719DAE43A4D0A443A4D0A4437BD48F
:0A0C700092437BD49243A4D0824348
:00000001FF
